{
    "contractName": "LookupContract",
    "abi": [
        {
            "inputs": [
                {
                    "internalType": "uint256",
                    "name": "_id",
                    "type": "uint256"
                },
                {
                    "internalType": "uint256",
                    "name": "_checksum",
                    "type": "uint256"
                },
                {
                    "internalType": "string",
                    "name": "_loc",
                    "type": "string"
                }
            ],
            "stateMutability": "nonpayable",
            "type": "constructor"
        },
        {
            "inputs": [
                {
                    "internalType": "uint256",
                    "name": "_id",
                    "type": "uint256"
                }
            ],
            "name": "getUpdateInfo",
            "outputs": [
                {
                    "internalType": "uint256",
                    "name": "",
                    "type": "uint256"
                },
                {
                    "internalType": "string",
                    "name": "",
                    "type": "string"
                }
            ],
            "stateMutability": "view",
            "type": "function"
        },
        {
            "inputs": [
                {
                    "internalType": "uint256",
                    "name": "",
                    "type": "uint256"
                }
            ],
            "name": "myDirectory",
            "outputs": [
                {
                    "internalType": "uint256",
                    "name": "checksum",
                    "type": "uint256"
                },
                {
                    "internalType": "string",
                    "name": "loc",
                    "type": "string"
                }
            ],
            "stateMutability": "view",
            "type": "function"
        },
        {
            "inputs": [
                {
                    "internalType": "uint256",
                    "name": "_id",
                    "type": "uint256"
                },
                {
                    "internalType": "uint256",
                    "name": "_checksum",
                    "type": "uint256"
                },
                {
                    "internalType": "string",
                    "name": "_loc",
                    "type": "string"
                }
            ],
            "name": "setUpdateInfo",
            "outputs": [],
            "stateMutability": "nonpayable",
            "type": "function"
        }
    ],
    "bytecode": "608060405234801561001057600080fd5b506040516107ae3803806107ae83398101604081905261002f91610089565b6040805180820182528381526020808201848152600087815291829052929020815181559151909190600182019061006790826101ef565b509050505050506102ae565b634e487b7160e01b600052604160045260246000fd5b60008060006060848603121561009e57600080fd5b835160208086015160408701519295509350906001600160401b03808211156100c657600080fd5b818701915087601f8301126100da57600080fd5b8151818111156100ec576100ec610073565b604051601f8201601f19908116603f0116810190838211818310171561011457610114610073565b816040528281528a8684870101111561012c57600080fd5b600093505b8284101561014e5784840186015181850187015292850192610131565b60008684830101528096505050505050509250925092565b600181811c9082168061017a57607f821691505b60208210810361019a57634e487b7160e01b600052602260045260246000fd5b50919050565b601f8211156101ea57600081815260208120601f850160051c810160208610156101c75750805b601f850160051c820191505b818110156101e6578281556001016101d3565b5050505b505050565b81516001600160401b0381111561020857610208610073565b61021c816102168454610166565b846101a0565b602080601f83116001811461025157600084156102395750858301515b600019600386901b1c1916600185901b1785556101e6565b600085815260208120601f198616915b8281101561028057888601518255948401946001909101908401610261565b508582101561029e5787850151600019600388901b60f8161c191681555b5050505050600190811b01905550565b6104f1806102bd6000396000f3fe608060405234801561001057600080fd5b50600436106100415760003560e01c80633a2cfd2714610046578063424fa4cf14610070578063c5f12ea114610083575b600080fd5b61005961005436600461022d565b610098565b604051610067929190610246565b60405180910390f35b61005961007e36600461022d565b610148565b6100966100913660046102b2565b6101ed565b005b6000818152602081905260408120805460019091018054606092919081906100bf90610376565b80601f01602080910402602001604051908101604052809291908181526020018280546100eb90610376565b80156101385780601f1061010d57610100808354040283529160200191610138565b820191906000526020600020905b81548152906001019060200180831161011b57829003601f168201915b5050505050905091509150915091565b6000602081905290815260409020805460018201805491929161016a90610376565b80601f016020809104026020016040519081016040528092919081815260200182805461019690610376565b80156101e35780601f106101b8576101008083540402835291602001916101e3565b820191906000526020600020905b8154815290600101906020018083116101c657829003601f168201915b5050505050905082565b6040805180820182528381526020808201848152600087815291829052929020815181559151909190600182019061022590826103fb565b505050505050565b60006020828403121561023f57600080fd5b5035919050565b82815260006020604081840152835180604085015260005b8181101561027a5785810183015185820160600152820161025e565b506000606082860101526060601f19601f830116850101925050509392505050565b634e487b7160e01b600052604160045260246000fd5b6000806000606084860312156102c757600080fd5b8335925060208401359150604084013567ffffffffffffffff808211156102ed57600080fd5b818601915086601f83011261030157600080fd5b8135818111156103135761031361029c565b604051601f8201601f19908116603f0116810190838211818310171561033b5761033b61029c565b8160405282815289602084870101111561035457600080fd5b8260208601602083013760006020848301015280955050505050509250925092565b600181811c9082168061038a57607f821691505b6020821081036103aa57634e487b7160e01b600052602260045260246000fd5b50919050565b601f8211156103f657600081815260208120601f850160051c810160208610156103d75750805b601f850160051c820191505b81811015610225578281556001016103e3565b505050565b815167ffffffffffffffff8111156104155761041561029c565b610429816104238454610376565b846103b0565b602080601f83116001811461045e57600084156104465750858301515b600019600386901b1c1916600185901b178555610225565b600085815260208120601f198616915b8281101561048d5788860151825594840194600190910190840161046e565b50858210156104ab5787850151600019600388901b60f8161c191681555b5050505050600190811b0190555056fea2646970667358221220de4f61934370b94dc3634ba1984bfcdb00ec9a96afd9411e69a0859ffd3980e764736f6c63430008110033",
    "sourcePath": "c:/Users/soham/Documents/Projects/Hedera/LookupContract.sol",
    "compiler": {
        "name": "solc",
        "version": "0.8.17+commit.8df45f5f"
    },
    "functionHashes": {
        "getUpdateInfo(uint256)": "3a2cfd27",
        "myDirectory(uint256)": "424fa4cf",
        "setUpdateInfo(uint256,uint256,string)": "c5f12ea1"
    },
    "gasEstimates": {
        "creation": {
            "codeDepositCost": "253000",
            "executionCost": "infinite",
            "totalCost": "infinite"
        },
        "external": {
            "getUpdateInfo(uint256)": "infinite",
            "myDirectory(uint256)": "infinite",
            "setUpdateInfo(uint256,uint256,string)": "infinite"
        }
    }
}